{
  "contractName": "Trackeur",
  "abi": [
    {
      "inputs": [
        {
          "components": [
            {
              "internalType": "string",
              "name": "name",
              "type": "string"
            },
            {
              "internalType": "uint256",
              "name": "id",
              "type": "uint256"
            }
          ],
          "internalType": "struct Trackeur.Product",
          "name": "_product",
          "type": "tuple"
        }
      ],
      "payable": false,
      "stateMutability": "nonpayable",
      "type": "constructor"
    },
    {
      "anonymous": false,
      "inputs": [
        {
          "indexed": false,
          "internalType": "address",
          "name": "from",
          "type": "address"
        },
        {
          "indexed": false,
          "internalType": "address",
          "name": "to",
          "type": "address"
        },
        {
          "indexed": false,
          "internalType": "string",
          "name": "message",
          "type": "string"
        },
        {
          "indexed": false,
          "internalType": "bool",
          "name": "giveTip",
          "type": "bool"
        }
      ],
      "name": "OnDelivered",
      "type": "event"
    },
    {
      "anonymous": false,
      "inputs": [
        {
          "indexed": false,
          "internalType": "address",
          "name": "from",
          "type": "address"
        },
        {
          "indexed": false,
          "internalType": "address",
          "name": "to",
          "type": "address"
        },
        {
          "indexed": false,
          "internalType": "string",
          "name": "message",
          "type": "string"
        }
      ],
      "name": "UpdateTracking",
      "type": "event"
    },
    {
      "constant": false,
      "inputs": [
        {
          "internalType": "address",
          "name": "_receiver",
          "type": "address"
        },
        {
          "internalType": "address payable",
          "name": "_emitter",
          "type": "address"
        },
        {
          "internalType": "bool",
          "name": "_giveTipe",
          "type": "bool"
        }
      ],
      "name": "track",
      "outputs": [],
      "payable": false,
      "stateMutability": "nonpayable",
      "type": "function"
    },
    {
      "constant": false,
      "inputs": [
        {
          "internalType": "address payable",
          "name": "_address",
          "type": "address"
        }
      ],
      "name": "sendTip",
      "outputs": [],
      "payable": true,
      "stateMutability": "payable",
      "type": "function"
    }
  ],
  "bytecode": "0x60806040523480156200001157600080fd5b50604051620009273803806200092783398181016040526200003791908101906200021f565b60008060006101000a81548160ff021916908360028111156200005657fe5b021790555080600160008201518160000190805190602001906200007c92919062000091565b50602082015181600101559050505062000319565b828054600181600116156101000203166002900490600052602060002090601f016020900481019282601f10620000d457805160ff191683800117855562000105565b8280016001018555821562000105579182015b8281111562000104578251825591602001919060010190620000e7565b5b50905062000114919062000118565b5090565b6200013d91905b80821115620001395760008160009055506001016200011f565b5090565b90565b600082601f8301126200015257600080fd5b815162000169620001638262000292565b62000264565b915080825260208301602083018583830111156200018657600080fd5b62000193838284620002c9565b50505092915050565b600060408284031215620001af57600080fd5b620001bb604062000264565b9050600082015167ffffffffffffffff811115620001d857600080fd5b620001e68482850162000140565b6000830152506020620001fc8482850162000208565b60208301525092915050565b6000815190506200021981620002ff565b92915050565b6000602082840312156200023257600080fd5b600082015167ffffffffffffffff8111156200024d57600080fd5b6200025b848285016200019c565b91505092915050565b6000604051905081810181811067ffffffffffffffff821117156200028857600080fd5b8060405250919050565b600067ffffffffffffffff821115620002aa57600080fd5b601f19601f8301169050602081019050919050565b6000819050919050565b60005b83811015620002e9578082015181840152602081019050620002cc565b83811115620002f9576000848401525b50505050565b6200030a81620002bf565b81146200031657600080fd5b50565b6105fe80620003296000396000f3fe6080604052600436106100295760003560e01c80631acace0c1461002e578063a4e81be014610057575b600080fd5b34801561003a57600080fd5b5061005560048036036100509190810190610337565b610073565b005b610071600480360361006c919081019061030e565b610285565b005b6001800154600360008473ffffffffffffffffffffffffffffffffffffffff1673ffffffffffffffffffffffffffffffffffffffff168152602001908152602001600020600101541415801561010f57506001800154600360008573ffffffffffffffffffffffffffffffffffffffff1673ffffffffffffffffffffffffffffffffffffffff1681526020019081526020016000206001015414155b156101715760016000806101000a81548160ff0219169083600281111561013257fe5b02179055507ff5b389fa41dfa8d9655a4ced79dc304c371e46d933c05579a81366f5d4c144a68284604051610168929190610459565b60405180910390a15b6001800154600360008473ffffffffffffffffffffffffffffffffffffffff1673ffffffffffffffffffffffffffffffffffffffff168152602001908152602001600020600101541415801561020c57506001800154600360008573ffffffffffffffffffffffffffffffffffffffff1673ffffffffffffffffffffffffffffffffffffffff16815260200190815260200160002060010154145b156102805760026000806101000a81548160ff0219169083600281111561022f57fe5b02179055507f554ced83a07e9753c5cbf14fd62140cb043e5b98a0378ae21acef0da4a6a05b382848360405161026793929190610495565b60405180910390a1801561027f5761027e82610285565b5b5b505050565b8073ffffffffffffffffffffffffffffffffffffffff166108fc349081150290604051600060405180830381858888f193505050501580156102cb573d6000803e3d6000fd5b5050565b6000813590506102de81610576565b92915050565b6000813590506102f38161058d565b92915050565b600081359050610308816105a4565b92915050565b60006020828403121561032057600080fd5b600061032e848285016102e4565b91505092915050565b60008060006060848603121561034c57600080fd5b600061035a868287016102cf565b935050602061036b868287016102e4565b925050604061037c868287016102f9565b9150509250925092565b61038f81610540565b82525050565b61039e816104f0565b82525050565b6103ad81610514565b82525050565b60006103c0600f836104df565b91507f50726f64756374207368697070656400000000000000000000000000000000006000830152602082019050919050565b60006104006031836104df565b91507f50726f647563742064656c6976657265642c20776f756c6420796f75206c696b60008301527f6520746f2067697665206120746970203f0000000000000000000000000000006020830152604082019050919050565b600060608201905061046e6000830185610386565b61047b6020830184610395565b818103604083015261048c816103b3565b90509392505050565b60006080820190506104aa6000830186610386565b6104b76020830185610395565b81810360408301526104c8816103f3565b90506104d760608301846103a4565b949350505050565b600082825260208201905092915050565b60006104fb82610520565b9050919050565b600061050d82610520565b9050919050565b60008115159050919050565b600073ffffffffffffffffffffffffffffffffffffffff82169050919050565b600061054b82610552565b9050919050565b600061055d82610564565b9050919050565b600061056f82610520565b9050919050565b61057f816104f0565b811461058a57600080fd5b50565b61059681610502565b81146105a157600080fd5b50565b6105ad81610514565b81146105b857600080fd5b5056fea365627a7a72315820eb7979664ab1d4940e175c0877e32ec530ddf2c9c5478ed3c24ae433b9d66eac6c6578706572696d656e74616cf564736f6c63430005100040",
  "source": "// SPDX-License-Identifier: MIT\r\npragma solidity >=0.4.22 <0.9.0;\r\npragma experimental ABIEncoderV2;\r\ncontract Trackeur {\r\n    event UpdateTracking(address from, address to, string message);\r\n    event OnDelivered(address from, address to, string message, bool giveTip);\r\n\r\n    enum  State {\r\n        pending,\r\n        shipped,\r\n        delivered\r\n    }\r\n\r\n    struct Product {\r\n        string name;\r\n        uint id;\r\n    }\r\n\r\n    State currentState;\r\n    Product product;\r\n\r\n    constructor(Product memory _product) public {\r\n        currentState = State.pending;\r\n        product = _product;\r\n\r\n    }\r\n\r\n    mapping  (address => Product) private AccountProduct;\r\n\r\n    function track(address _receiver, address payable _emitter, bool _giveTipe) public {\r\n        if (AccountProduct[_emitter].id != product.id && AccountProduct[_receiver].id != product.id )\r\n        {\r\n            currentState = State.shipped;\r\n            emit UpdateTracking(_emitter, _receiver, \"Product shipped\");\r\n        }\r\n\r\n        if (AccountProduct[_emitter].id != product.id && AccountProduct[_receiver].id == product.id )\r\n        {\r\n            currentState = State.delivered;\r\n            emit OnDelivered(_emitter, _receiver, \"Product delivered, would you like to give a tip ?\", _giveTipe);\r\n            if (_giveTipe) \r\n            {\r\n\r\n                sendTip(_emitter);\r\n            }\r\n        }\r\n    }\r\n    \r\n    function sendTip(address payable _address) payable public \r\n    {\r\n        _address.transfer(msg.value);\r\n    }\r\n}\r\n",
  "sourcePath": "C:\\Users\\DuDav\\Desktop\\eval\\contracts\\Trackeur.sol",
  "compiler": {
    "name": "solc",
    "version": "0.5.16+commit.9c3226ce.Emscripten.clang"
  },
  "schemaVersion": "3.4.3",
  "updatedAt": "2021-10-21T14:20:43.290Z",
  "devdoc": {
    "methods": {}
  },
  "userdoc": {
    "methods": {}
  }
}